S00C0000434F54532E73726563DF
S11300000C942A000C9434000C9434000C943400A6
S11300100C9434000C9434000C9434000C9434008C
S11300200C9434000C9434000C9434000C9434007C
S11300300C9434000C9434000C9434000C9434006C
S11300400C9434000C9434000C9434000C9434005C
S11300500C94340011241FBECFE5D8E0DEBFCDBF21
S11300600E944C000C945F000C94000094B321E0B7
S113007030E002C0220F331F8A95E2F7292B24BBFC
S1130080089595B321E030E002C0220F331F8A9512
S1130090E2F7292B25BB089580E00E94360080E01A
S11300A00E94410081E00E94360081E00E944100EC
S11300B082E00E94360082E00E944100FFCFF89463
S10500C0FFCF6C
S9030000FC
