S00C0000434F54532E73726563DF
S11300000C942A000C943F000C943F000C943F0085
S11300100C943F000C943F000C943F000C943F0060
S11300200C943F000C943F000C943F000C943F0050
S11300300C943F000C943F000C943F000C943F0040
S11300400C943F000C943F000C943F000C943F0030
S11300500C943F0011241FBECFE5D8E0DEBFCDBF16
S113006010E0A0E6B0E0E2EDF2E002C005900D92EF
S1130070A636B107D9F70E9441000C9467010C948D
S113008000000E94E40080E00E944D0081E00E9494
S11300904D0082E00E944D00F6CF813049F018F007
S11300A0823059F0089561E080E10E946200089571
S11300B061E081E10E946200089561E082E10E94B2
S11300C062000895982F9695969596958770662365
S11300D0D9F1613009F077C0913091F028F0923075
S11300E0D9F0933029F130C09BB321E030E0082EE1
S11300F002C0220F331F0A94E2F7292B2BBB2CC01A
S113010098B321E030E0082E02C0220F331F0A9476
S1130110E2F7292B28BB2EC095B321E030E0082E4E
S113012002C0220F331F0A94E2F7292B25BB30C0EB
S113013092B321E030E0082E02C0220F331F0A944C
S1130140E2F7292B22BB32C09130A1F028F0923083
S1130150F9F09330C1F52AC04BB321E030E0B90186
S113016002C0660F771F8A95E2F7CB01809584233E
S11301708BBB089548B321E030E0B90102C0660F9B
S1130180771F8A95E2F7CB018095842388BB089575
S113019045B321E030E0B90102C0660F771F8A95AC
S11301A0E2F7CB018095842385BB089542B321E017
S11301B030E0B90102C0660F771F8A95E2F7CB01E0
S11301C08095842382BB0895E0E6F0E046E650E0A3
S11301D061E070E08081982F96959695969587704A
S11301E021812223B9F1213009F06BC0913089F0CB
S11301F028F09230C9F0933011F163C02AB3DB01C7
S113020002C0AA0FBB1F8A95E2F7CD01822B8ABBDD
S113021058C027B3DB0102C0AA0FBB1F8A95E2F7BF
S1130220CD01822B87BB4DC024B3DB0102C0AA0FD2
S1130230BB1F8A95E2F7CD01822B84BB42C021B358
S1130240DB0102C0AA0FBB1F8A95E2F7CD01822B06
S113025081BB37C0913091F028F09230D9F09330BF
S113026029F12FC09AB39B0102C0220F331F8A9534
S1130270E2F7822F809589238ABB23C097B39B0121
S113028002C0220F331F8A95E2F7822F80958923BB
S113029087BB17C094B39B0102C0220F331F8A95FA
S11302A0E2F7822F8095892384BB0BC091B39B0115
S11302B002C0220F331F8A95E2F7822F809589238B
S11302C081BB3296E417F50709F084CF0895F894BA
S10502D0FFCF5A
S10902D2100111011201EC
S9030000FC
