S00C0000434F54532E73726563DF
S11300000C942A000C943F000C943F000C943F0085
S11300100C943F000C943F000C943F000C943F0060
S11300200C943F000C943F000C943F000C943F0050
S11300300C943F000C943F000C943F000C943F0040
S11300400C943F000C943F000C943F000C943F0030
S11300500C943F0011241FBECFE5D8E0DEBFCDBF16
S113006010E0A0E6B0E0EAE4F2E002C005900D92F0
S1130070AA36B107D9F70E9488000C9423010C9486
S1130080000091B321E030E002C0220F331F8A95B3
S1130090E2F72095292321BB0895982F20B330E05F
S11300A002C0359527958A95E2F7822F817041E049
S11300B050E002C0440F551F9A95E2F720B330E098
S11300C024233523232BD1F3EFE3FCE93197F1F714
S11300D000C000000895A59A08958823C1F090E017
S11300E0AD9A2FEF3DE242E2215030404040E1F72B
S11300F000C00000AD982FEF39E648E121503040B0
S11301004040E1F700C000009F5F8913E9CF0895E4
S113011082E00E94410083E00E94410084E00E944A
S1130120410085E00E9441000E94F4000E946B009F
S1130130C0E0DDEC8C2F0E94F90085E00E944D00A8
S1130140811117C0CF3509F44BC021E02C0F2D9F2E
S1130150812D1124869586958695880F982F990F61
S1130160990F890F322F381B363011F4CB5F01C041
S1130170C22F84E00E944D00811103C0CA3508F4E7
S1130180C65F83E00E944D00811123C0CC23E9F0B7
S11301908C2F0E94F900CD9F812D11248695869580
S11301A08695880F982F990F990F890FC81301C04E
S11301B0C4508AEA96EE26E931E08150904020400E
S11301C03040D9F70000C15019F784E00E946D0057
S11301D0C0E082E00E944D008111ACCFC0E0AACF04
S11301E084E00E944D00CDCF8FEF8ABBA69AA79AD8
S11301F00895AE9AAF98EDEC8E9FE12D1124E6950B
S1130200E695E6952E2F220F922F990F990F920FB4
S1130210891BA82FB0E0A05ABF4F8C918BBB8FE9EC
S11302209FE00197F1F700C00000AE98AF9AF0E0AC
S1130230E05AFF4F80818BBB8FE99FE00197F1F774
S10D024000C000000895F894FFCFF9
S10D024A7E0CB69ECCDAFA0EFEDE3E
S9030000FC
