S00C0000434F54532E73726563DF
S11300000C942A000C943F000C943F000C943F0085
S11300100C943F000C943F000C943F000C943F0060
S11300200C943F000C943F000C943F000C943F0050
S11300300C943F000C943F000C943F000C943F0040
S11300400C943F000C943F000C943F000C943F0030
S11300500C943F0011241FBECFE5D8E0DEBFCDBF16
S113006010E0A0E6B0E0EAEBF1E002C005900D92EA
S1130070A636B107D9F70E9441000C94DB000C941A
S113008000000E94580080E00E944D0081E00E9420
S11300904D0082E00E944D00F6CF95B321E030E0A0
S11300A002C0220F331F8A95E2F7292B25BB08953E
S11300B0E0E6F0E046E650E061E070E08081982FF1
S11300C0969596959695877021812223B9F12130D2
S11300D009F06BC0913089F028F09230C9F0933068
S11300E011F163C02AB3DB0102C0AA0FBB1F8A95BA
S11300F0E2F7CD01822B8ABB58C027B3DB0102C0D3
S1130100AA0FBB1F8A95E2F7CD01822B87BB4DC096
S113011024B3DB0102C0AA0FBB1F8A95E2F7CD010D
S1130120822B84BB42C021B3DB0102C0AA0FBB1FD8
S11301308A95E2F7CD01822B81BB37C0913091F0D3
S113014028F09230D9F0933029F12FC09AB39B0153
S113015002C0220F331F8A95E2F7822F80958923EC
S11301608ABB23C097B39B0102C0220F331F8A9519
S1130170E2F7822F8095892387BB17C094B39B0134
S113018002C0220F331F8A95E2F7822F80958923BC
S113019084BB0BC091B39B0102C0220F331F8A950D
S11301A0E2F7822F8095892381BB3296E417F50705
S10D01B009F084CF0895F894FFCFFE
S10901BA10011101120105
S9030000FC
